:020000040000FA
:100000000A128A11F72F00308A000408840A820736
:1000100000343F3406345B344F3466346D347D3401
:1000200007347F346F3400340134033407340F3421
:080030001F343F347F34FF341C
:100E38008316031385018601870188018816081720
:100E48008817831203138501860187018801881E8C
:100E58002E2F2F2FEE2FF401F301F201F101F001F3
:100E680085018601881108120814881008110430B9
:100E780084000A128A1103200A128A118700063098
:100E8800F7001330F600AD30F500F50B492FF60BDF
:100E9800492FF70B492F502F83120313081088147A
:100EA8000811033084000A128A1103200A128A11D9
:100EB80087000630F7001330F600AD30F500F50B6B
:100EC800632FF60B632FF70B632F6A2F831203131D
:100ED800081088100815023084000A128A110320AD
:100EE8000A128A1187000630F7001330F600AD3079
:100EF800F500F50B7D2FF60B7D2FF70B7D2F842F3B
:100F080083120313081488140815013084000A1288
:100F18008A1103200A128A118700F401F40AEE2FBD
:100F2800081F972F982FA32F7108031D9C2F9D2F03
:100F3800A32F0130F5007508F307F101F10A881FA6
:100F4800A62FA72FB22F7008031DAB2FAC2FB22FDF
:100F58000130F5007508F207F001F00A73080B3E3E
:100F680084000A128A1103200A128A118500720865
:100F78000B3E84000A128A1103200A128A11860085
:100F880008307306031DC92FCA2FD42F02308400DE
:100F98000A128A1103200A128A1187008815F4019F
:100FA80008307206031DD92FDA2FE42F033084008E
:100FB8000A128A1103200A128A1187000816F401FE
:100FC800081BE72FE82FE92FF101881BEC2FED2FE5
:100FD800EE2FF00174030319F22FF32F942F2B2F08
:100FE8000A128A110028F001F101F201F301F4015B
:080FF80083010A128A111C2F6B
:04400E00D4E0FFFFFC
:00000001FF
